S01B0000333334325F3031345F44414C4973656E736F722E7372656336
S3150800000000200020495F00082D59000837590008CC
S3150800001000000000000000000000000000000000D2
S315080000200000000000000000000000003D59000824
S315080000300000000000000000475900085159000858
S31508000040995F0008995F0008995F0008995F0008A2
S31508000050995F0008995F0008995F0008255A00080B
S31508000060995F0008995F0008995F0008995F000882
S31508000070995F0008995F0008995F00084D5A0008C3
S31508000080995F0008895A000800000000A15A000874
S31508000090995F0008995F0008995F0008995F000852
S315080000A0995F0008995F0008995F0008995F000842
S315080000B0995F000800000000995F00080000000032
S315080000C010B5064C2378002B07D1054B002B02D020
S315080000D0044800E000BF0123237010BD88000020FB
S315080000E0000000002C880008044B10B5002B03D034
S315080000F00349044800E000BF10BDC04600000000E8
S315080001008C0000202C880008002243088B4274D3F8
S3150800011003098B425FD3030A8B4244D3030B8B42FA
S3150800012028D3030C8B420DD3FF22090212BA030C03
S315080001308B4202D31212090265D0030B8B4219D3E4
S3150800014000E0090AC30B8B4201D3CB03C01A524104
S31508000150830B8B4201D38B03C01A5241430B8B424C
S3150800016001D34B03C01A5241030B8B4201D30B0335
S31508000170C01A5241C30A8B4201D3CB02C01A52415C
S31508000180830A8B4201D38B02C01A5241430A8B421F
S3150800019001D34B02C01A5241030A8B4201D30B0208
S315080001A0C01A5241CDD2C3098B4201D3CB01C01A22
S315080001B0524183098B4201D38B01C01A524143092C
S315080001C08B4201D34B01C01A524103098B4201D31A
S315080001D00B01C01A5241C3088B4201D3CB00C01A87
S315080001E0524183088B4201D38B00C01A52414308FF
S315080001F08B4201D34B00C01A5241411A00D2014624
S31508000200524110467047FFE701B5002000F0F0F8AC
S3150800021002BDC0460029F7D076E7704703460B4370
S315080002207FD4002243088B4274D303098B425FD3E1
S31508000230030A8B4244D3030B8B4228D3030C8B420D
S315080002400DD3FF22090212BA030C8B4202D31212F3
S31508000250090265D0030B8B4219D300E0090AC30BC8
S315080002608B4201D3CB03C01A5241830B8B4201D375
S315080002708B03C01A5241430B8B4201D34B03C01A5E
S315080002805241030B8B4201D30B03C01A5241C30AD6
S315080002908B4201D3CB02C01A5241830A8B4201D347
S315080002A08B02C01A5241430A8B4201D34B02C01A31
S315080002B05241030A8B4201D30B02C01A5241CDD2D6
S315080002C0C3098B4201D3CB01C01A524183098B4221
S315080002D001D38B01C01A524143098B4201D34B010A
S315080002E0C01A524103098B4201D30B01C01A52416D
S315080002F0C3088B4201D3CB00C01A524183088B42F4
S3150800030001D38B00C01A524143088B4201D34B00DC
S31508000310C01A5241411A00D201465241104670474E
S315080003205DE0CA0F00D04942031000D34042534053
S3150800033000229C4603098B422DD3030A8B4212D313
S31508000340FC22890112BA030A8B420CD38901921145
S315080003508B4208D3890192118B4204D389013AD082
S31508000360921100E08909C3098B4201D3CB01C01A57
S31508000370524183098B4201D38B01C01A524143096A
S315080003808B4201D34B01C01A524103098B4201D358
S315080003900B01C01A5241C3088B4201D3CB00C01AC5
S315080003A0524183088B4201D38B00C01A5241D9D2DD
S315080003B043088B4201D34B00C01A5241411A00D25E
S315080003C00146634652415B10104601D34042002B5A
S315080003D000D54942704763465B1000D3404201B5D9
S315080003E0002000F005F802BD0029F8D016E770478E
S315080003F07047C046F0B5CE46474615042D0C2E006C
S3150800040080B50704140C3F0C9946030C7E435D43E4
S31508000410674363437F19340CE4199C46A54203D904
S3150800042080235B029846C4444B4643435143250CFC
S3150800043036046544360C2404A4195B19591820009F
S315080004400CBC90469946F0BD80B584B000AF3B1D04
S3150800045018000C231A00002108F0DAF82C4B2D4A54
S315080004601A602B4B00225A60294B00229A60284BAF
S315080004700022DA60264B01221A61254B04225A61B2
S31508000480234B01221A76224B01225A76204B002250
S315080004909A761F4B0022DA761D4BC222FF32DA61AA
S315080004A01B4B00221A621A4B242200219954184B1E
S315080004B001229A62164B180005F0F6FD031E01D0BC
S315080004C005F00BFA3B1D01221A603B1D80225201E2
S315080004D05A603B1D07229A603A1D0D4B1100180001
S315080004E006F054F8031E01D005F0F7F93B1D092262
S315080004F01A603A1D064B1100180006F047F8031E4D
S3150800050001D005F0EAF9C046BD4604B080BDC04634
S31508000510E80400200024014090B58BB000AF786055
S315080005201423FB18180014231A00002108F070F889
S315080005307B681B68284A934249D1284B9A69274BFE
S31508000540802189000A439A61244B9A6980239B007B
S3150800055013403B613B69214B5A69204B8021890234
S315080005600A435A611D4B5A6980239B021340FB605C
S31508000570FB681A4B5A69194B8021C9020A435A610A
S31508000580164B5A698023DB021340BB60BB681424F0
S315080005903B1902221A603B1903225A603B190022B2
S315080005A09A603A199023DB051100180006F0A4FD9D
S315080005B03B1902221A603B1903225A603B19002292
S315080005C09A603B19064A1900100006F095FDC046C8
S315080005D0BD460BB090BDC046002401400010024045
S315080005E000040048B0B500AF80239B000021180026
S315080005F004F0CAFF0C4B00221A700C4B00221A801A
S31508000600012000F019F80A4B00221A70094B002243
S315080006101A70002008F05AF803000C00180007F0BA
S31508000620FFFFC046BD46B0BDEC070020F40700201A
S31508000630EE070020E407002080B582B000AF020074
S31508000640FB1D1A70FB1D1B7801221340DAB2074BFB
S3150800065001210A4010005A7801218A43111C021C04
S315080006600A435A70C046BD4602B080BDF407002052
S3150800067080B582B000AFD64B1B78092B01D900F0A4
S315080006801AFC9A00D34BD3181B689F46D24B1B689B
S31508000690D24AD31A3B60D04B00221A60D04B1B7843
S315080006A0DBB2382B00D975E09A00CE4BD3181B68FD
S315080006B09F46CD4BC94A1900100005F0EBFB802375
S315080006C09B000021180004F05FFFD5E0C64A3B688E
S315080006D01100180005F0DEFBC44B1A6880231B04C2
S315080006E0134006D080239B000121180004F04CFF1C
S315080006F005E080239B000021180004F045FFBC4B51
S3150800070001221A70B8E0B84A3B681100180005F0D3
S31508000710C1FB80239B000021180004F035FFABE0E5
S31508000720B14A3B681100180005F0B4FB80239B0012
S315080007300021180004F028FF9EE0AE4B5B780222E9
S315080007401340DBB2002B09D0A14B09221A70A64B25
S31508000750A94A1900100005F09DFB0BE0A24BA74A19
S315080007601900100005F096FBA54B00221A60984B5D
S3150800077005221A709F4B5B7804221340DBB2002BCC
S3150800078000D078E09B4B1A7802210A431A7001F0D0
S315080007901FF970E0944A3B681100180005F07AFBCF
S315080007A08F4B1B78DBB21A000123134002D0012BB2
S315080007B046D061E08D4B1A68C0231B041340802283
S315080007C0D203934216D08022D203934202D8002B3A
S315080007D009D024E080221204934212D0C0221204C7
S315080007E0934215D01BE080239B000021180004F0DB
S315080007F0CBFE14E080239B000121180004F0C4FE00
S315080008000DE080239B000021180004F0BDFE06E0E1
S3150800081080239B000121180004F0B6FEC046734BE6
S315080008201A6880231B0413405A1E9341DBB21A0030
S315080008306F4B1A706D4B1B685A006C4B1A6019E0A7
S315080008406A4B1A6880231B04134004D080221204C2
S31508000850934207D00DE080239B000121180004F085
S3150800086093FE06E080239B000021180004F08CFE0E
S31508000870C046C04600E0C046594B1B78DBB2013380
S31508000880DAB2574B1A705B4B5B7802221340DBB225
S31508000890002B08D0524B1B78DBB2122B03D1504BDE
S315080008A032221A7015E0534B5B7801221340DBB2F3
S315080008B0002B0ED04F4B5B7802221340DBB2002B85
S315080008C007D1474B1B78DBB2222B02D1444B32228D
S315080008D01A70454B180005F003FB0100404B1B78C6
S315080008E0DBB21A0089B2474B5200D152EAE2414BB9
S315080008F05B7804221340DBB2002B1BD0344B012259
S315080009001A703C4B5A7804218A435A703E4B1A682F
S31508000910364B1A60324B01221A70334B2F4A190094
S31508000920100005F0B7FA80239B000121180004F097
S315080009302BFEC7E22C4B354A1900100005F0AAFA1F
S31508000940234B09221A70BDE2214B00221A70264B4E
S31508000950180005F0D0FAB5E280239B0000211800A4
S3150800096004F012FEFB1D1E221A70C046FB1D1B78E2
S31508000970FA1D591E1170002BF8D18023DB001800D0
S3150800098004F036FE0300012B06D1174B1A4A19004C
S31508000990100005F07FFA15E007F066FE0200AF23A7
S315080009A019011000FFF720FD0B00194A944663440D
S315080009B01A00184B1A60174B1B680B4A11001800CF
S315080009C005F068FA01F004F8014B09221A7079E279
S315080009D0EC07002074880008A4000020050D00001C
S315080009E0CC0500209C880008580A0020E80700204B
S315080009F0F8070020F407002028680100A054010029
S31508000A00280500206C070020F00700208813000046
S31508000A10E8800000A8000020D74B1B78DAB2D74B35
S31508000A201B78DBB29A4223D0D34B1B78DBB2D44A6D
S31508000A30DB00D31806331A78D24B1B78DBB29A42FE
S31508000A4016D8CD4B1B78DBB2CD4ADB009858D318A5
S31508000A50596800F0DBFEC84B1B78DBB20133142162
S31508000A601800FFF7C1FC0B00DAB2C34B1A7029E273
S31508000A70C44B1B78DBB2052B00D922E29A00C24B85
S31508000A80D3181B689F46C14BC14A1900100005F0D0
S31508000A9001FABC4B1B78DBB20133DAB2B94B1A70D8
S31508000AA036E0BA4BBB4A1900100005F0F3F9B54B0E
S31508000AB01B78DBB20133DAB2B24B1A7028E0B34ABC
S31508000AC0AF239B011100180005F0E4F9AD4B1B7824
S31508000AD0DBB20133DAB2AB4B1A7019E0AB4AC82362
S31508000AE09B011100180005F0D5F9A64B1B78DBB25F
S31508000AF00133DAB2A34B1A700AE0A44B180005F0CA
S31508000B00FAF9A54B00221A709E4B01221A70C046AC
S31508000B10D7E1A24B1B78DBB2082B04D09F4B1B787E
S31508000B20DBB2182B0ED19E4B1B680122134009D04D
S31508000B30994B03221A70954B9A4A1900100005F032
S31508000B40A9F9BFE1954B1B78DBB2082B3AD1964B36
S31508000B501A7820210A431A70914B1A68934B1A6027
S31508000B60914B5B780F229343DBB2502B07D08E4B09
S31508000B701A780C218A43111C08220A431A708C4BD6
S31508000B801B78DBB2022B0CD1894B1B78DBB2042B0A
S31508000B9007D1854B1A780C218A43111C04220A4373
S31508000BA01A707A4B834A1900100005F073F97E4BC8
S31508000BB01A7810210A431A7000F00AFF764B0922A8
S31508000BC01A707FE1754B1B78DBB2182B3AD1764B3E
S31508000BD01A7820218A431A70714B1A68734B1A6067
S31508000BE0714B5B780F229343DBB2502B07D16E4BC8
S31508000BF01A780C218A43111C08220A431A706C4B76
S31508000C001B78DBB2022B0CD1694B1B78DBB2042BA9
S31508000C1007D1654B1A780C218A43111C04220A4312
S31508000C201A70614B1A7810210A431A70574B624A98
S31508000C301900100005F02EF900F0CAFE564B0622E0
S31508000C401A703FE1584B1A780C210A431A70564B12
S31508000C501A7810210A431A704C4B564A190010008C
S31508000C6005F018F900F0B4FE4B4B09221A7029E179
S31508000C704A4B1B78DBB2082B3AD14B4B1A7820210A
S31508000C800A431A70464B1A68484B1A60464B5B78FB
S31508000C900F229343DBB2502B07D0434B1A780C2113
S31508000CA08A43111C08220A431A70414B1B78DBB28F
S31508000CB0022B0CD13E4B1B78DBB2042B07D13A4BE7
S31508000CC01A780C218A43111C04220A431A702F4BE6
S31508000CD0384A1900100005F0DDF8334B1A78102150
S31508000CE00A431A7000F074FE2B4B09221A70E9E0C9
S31508000CF02A4B1B78DBB2182B62D12B4B1A78202192
S31508000D008A431A70264B1A68284B1A60264B5B785A
S31508000D100F229343DBB2502B07D1234B1A780C21B1
S31508000D208A43111C08220A431A70214B1B78DBB22E
S31508000D30022B0CD11E4B1B78DBB2042B07D11A4BA6
S31508000D401A780C218A43111C04220A431A70164B7E
S31508000D501A7810210A431A700C4B174A190010000A
S31508000D6005F098F8154B00221A6000F031FE0A4B80
S31508000D7006221A70A6E0C046EF0700203C070020AE
S31508000D80D40500200400002080890008580A0020A5
S31508000D90742700006C390000EC0700207408002056
S31508000DA0D0050020050D0000F407002040070020AC
S31508000DB0CC05002028680100409C0000280500207A
S31508000DC0424B1A780C210A431A70404B1A781021A4
S31508000DD00A431A703E4B3F4A1900100005F05AF8AC
S31508000DE000F0F6FD3C4B09221A706BE0374B5B7836
S31508000DF008221340DBB2002B0ED0354B374A1900B8
S31508000E00100005F047F8344B04221A702F4B5A7815
S31508000E1008218A435A7055E0314B1B78DAB2314BB8
S31508000E201B78DBB29A4220D02D4B1B78DBB22E4AB8
S31508000E30DB00D31804331B78012B16D1284B1B78FB
S31508000E40DBB2294ADB009858D318596800F0DEFC53
S31508000E50234B1B78DBB2013314211800FFF7C4FAC1
S31508000E600B00DAB21E4B1A702CE0194B1F4A1900F8
S31508000E70100005F00FF8184B09221A7022E01C4BD7
S31508000E8000221A60114B1A780C218A43111C082279
S31508000E900A431A700D4B1A7810210A431A700C4B24
S31508000EA00E4A1900100004F0F5FF00F091FD0A4BF8
S31508000EB009221A7006E0064B180005F01CF8C04611
S31508000EC000E0C046BD4602B080BDC046F40700201B
S31508000ED0580A002028680100EC070020C0980B007B
S31508000EE0EF0700203C070020D4050020E8CB0000CF
S31508000EF04007002080B500AFDF4B1B78092B01D9CE
S31508000F0000F0FAFB9A00DD4BD3181B689F46802336
S31508000F109B000021180004F037FB8023DB00180033
S31508000F2004F066FB031E01D100F0E8FBD44B002257
S31508000F301A60D44B00221A70D34B00221A70D34B76
S31508000F401A7810218A431A70D04B1A780C218A43D2
S31508000F501A70CE4B1A7820218A431A70CB4B1A780E
S31508000F607F210A401A70C44B1B781A1C0F231340A2
S31508000F70DAB2C64B10015A780F210A40111C021C1E
S31508000F800A435A70C24B180004F091FFC04A9623D0
S31508000F90DB011100180004F07DFFBD4B180004F0BA
S31508000FA0BBFFB54B02221A7000F0A8FBB64B1B78A4
S31508000FB0DBB2012B05D1B74B180004F078FF00F01F
S31508000FC0A6FBB44B180004F08BFF03009AB2B24B91
S31508000FD01A80AF4B180004F083FF0200AF4B1A606B
S31508000FE0AC4B180004F063FFA74B1B78DBB21A0062
S31508000FF0A94B1988AA4B5200D152A84B1968A24B83
S315080010001B78DBB21A0089B2A64B5200D152A24B0A
S315080010101B88A54A934200D8ACE09F4B1B88A34A7D
S31508001020934200D9A6E0984B1B78DBB2022B3FD13E
S315080010309F4B1A6880231B04134039D18023DB0099
S31508001040180004F0D5FA0300012B31D18F4B1A781A
S3150800105001210A431A708D4B1A7802218A431A70A5
S31508001060854B08221A708A4B180004F020FF884B1B
S31508001070904A1900100004F00DFF854B180004F083
S315080010804BFF00F0A5FC8C4B1B78DBB2002B05D080
S31508001090894B1B78DBB2013BDAB200E01322864BA0
S315080010A01A7080239B000121180004F06DFA2EE3C4
S315080010B0754B1B78DBB201221340DBB2002B08D13B
S315080010C07B4B1A68C0231B041A4080231B049A42D0
S315080010D015D06D4B1B78DBB201221340DBB2002B17
S315080010E000D10DE3754B1B78DBB2002B00D107E36B
S315080010F06F4B1A6880231B04134000D000E380233B
S31508001100DB00180004F074FA0300012B00D0F7E2A4
S315080011105E4B1A7801210A431A705C4B1A78022131
S315080011208A431A70544B08221A70594B180004F057
S31508001130BEFE574B5F4A1900100004F0ABFE544B35
S31508001140180004F0E9FE00F043FC5B4B1B78DBB2A9
S31508001150002B05D0584B1B78DBB2013BDAB200E016
S315080011601322554B1A7080239B000121180004F0A6
S315080011700BFACCE2484B1B88514A934200D8B5E09B
S31508001180454B1B884F4A934200D9AFE08023DB00CA
S31508001190180004F02DFA0300012B1CD1474B1B78CD
S315080011A0DBB2012B17D1384B1B78DBB20122134077
S315080011B0DBB2012B00D0A5E2374B1B88424A93428B
S315080011C000D99FE2344B1B881A00404B9B1A1A0021
S315080011D03F4B1A6096E28023DB00180004F008FAF9
S315080011E0031E21D1354B1B78DBB2002B1CD1264BB5
S315080011F01B78DBB201221340DBB2002B00D083E25E
S31508001200254B1B88334A934200D87DE2234B1B6843
S31508001210214A12889B1A2D4A944663441C4A110097
S31508001220180004F050FE6FE2184B1A7801210A43A1
S315080012301A70164B1A7802218A431A700E4B082226
S315080012401A70134B180004F032FE114B194A190094
S31508001250100004F01FFE0E4B180004F05DFE00F0AF
S31508001260B7FB154B1B78DBB2002B35D0124B1B781E
S31508001270DBB2013BDAB230E0EC07002098890008BF
S31508001280D005002074080020CC050020F4070020B3
S31508001290580A0020D8090020AC000020B000002021
S315080012A074060020FC070020250B0000E60E00004F
S315080012B0E8070020A0280000EF070020F807002014
S315080012C09A1600007A1D00002A1800000A1A000063
S315080012D0A4000020EB1B00001322DF4B1A708023AA
S315080012E09B000121180004F04FF910E2DB4B1A7835
S315080012F001210A431A70D94B1A7802218A431A70B7
S31508001300D74B08221A70D74B180004F0D0FDD54BDE
S31508001310D54A1900100004F0BDFDD24B180004F0A0
S31508001320FBFD00F055FBCC4B1B78DBB2002B05D040
S31508001330C94B1B78DBB2013BDAB200E01322C64B7D
S315080013401A7080239B000121180004F01DF9DEE1C4
S31508001350C64B00221A60C64B00221A70C54B0022E3
S315080013601A70BE4B1A7810218A431A70BB4B1A782A
S315080013700C218A431A70B94B1A7820218A431A70AD
S31508001380B64B1A787F210A401A70B54B1B781A1C7F
S315080013900F231340DAB2B14B10015A780F210A40D5
S315080013A0111C021C0A435A70AE4B180004F07FFD4C
S315080013B0AC4A9623DB011100180004F06BFDA84B1C
S315080013C002221A70A74B180004F0A6FD9FE1A74B4E
S315080013D000221A60A64B00221A70A64B00221A7029
S315080013E09E4B1A7810218A431A709C4B1A780C2146
S315080013F08A431A70994B1A7820218A431A70984B97
S315080014001B781A1C0F231340DAB2944B10015A7832
S315080014100F210A40111C021C0A435A708F4B1A7876
S31508001420802149420A431A708E4B180004F03FFD8A
S315080014308C4A9623DB011100180004F02BFD884B1B
S3150800144002221A70874B180004F066FD5FE1874B8D
S3150800145000221A60864B00221A70864B00221A70E8
S315080014607E4B1A7810218A431A707C4B1A780C2105
S315080014708A431A70794B1A7820218A431A70784B56
S315080014801B781A1C0F231340DAB2744B10015A78D2
S315080014900F210A40111C021C0A435A706F4B1A7816
S315080014A0802149420A431A706E4B180004F0FFFC6B
S315080014B06C4A9623DB011100180004F0EBFC684B1C
S315080014C002221A70674B180004F026FD1FE1654BCF
S315080014D0180004F005FD0200674B1A60614B1800FE
S315080014E004F0E5FC5F4A9623DB011100180004F0BE
S315080014F0D1FC5C4B180004F00FFD5E4B1B78DBB289
S31508001500042B00D902E19A005C4BD3181B689F464E
S31508001510594B1B685A4A934208D9574B1B68594A74
S31508001520934203D8534B03221A70DBE04B4B1A78CD
S315080015300C218A43111C04220A431A70D2E04E4B2E
S315080015401B684F4A934214D94B4B1B684D4A93422A
S315080015500FD8464B1B685A00444B1A60444B1B78FD
S31508001560DBB20133DAB2424B1A70424B04221A70CC
S31508001570B8E03A4B1A780C218A43111C04220A4314
S315080015801A70AFE03C4B1B683D4A93421AD93A4B56
S315080015901B683C4A934215D8344B1B685A00334B98
S315080015A01A60324B1B6801221A43304B1A60304BC3
S315080015B01B78DBB20133DAB22D4B1A702D4B03229E
S315080015C01A708FE0254B1A780C218A43111C0422C5
S315080015D00A431A7086E0284B1B68294A934208D9A1
S315080015E0254B1B68274A934203D8224B02221A70BE
S315080015F022E0214B1B68244A934214D91E4B1B68D0
S31508001600224A93420FD8194B1B685A00174B1A6087
S31508001610174B1B78DBB20133DAB2154B1A70154B30
S3150800162004221A7008E00D4B1A780C218A43111C03
S3150800163004220A431A7055E054E00F4B1B68104AFF
S31508001640934225D90C4B1B680E4A934220D8094B66
S3150800165001221A7045E0C046EF070020F407002073
S31508001660EC070020580A0020A0280000D00500201A
S3150800167074080020CC050020B0000020C0890008AE
S315080016803D090000CC1000000B14000008200000E3
S31508001690204B1B68204A93421AD91E4B1B681F4AC7
S315080016A0934215D81E4B1B685A001D4B1A601C4BDB
S315080016B01B6801221A431A4B1A601A4B1B78DBB2B5
S315080016C00133DAB2174B1A70174B03221A7008E067
S315080016D0164B1A780C218A43111C04220A431A70E5
S315080016E0FFE7C04612E0114B1A780C218A43111CF9
S315080016F004220A431A700AE0C04608E0C04606E01B
S31508001700C04604E0C04602E0C04600E0C046BD460A
S3150800171080BDC046B00000200B1400000820000061
S31508001720D005002074080020CC050020F40700200E
S3150800173080B582B000AF3B00186059602F4B1B780C
S31508001740DBB2013314211800FEF74EFE0B001A0017
S315080017502B4B1B78DBB29A4231D0284B1B78DBB275
S31508001760284ADB003900D3180A0003CA03C3234BEF
S315080017701B78DBB2013314211800FEF735FE0B0087
S31508001780DAB21E4B1A70204B1B78002B15D11C4B56
S315080017901B78DBB21B4ADB009858D318596800F04F
S315080017A035F8174B1B78DBB2013314211800FEF706
S315080017B01BFE0B00DAB2124B1A7000231AE0124B0A
S315080017C01B78002B15D10E4B1B78DBB20D4ADB00BC
S315080017D09858D318596800F019F8094B1B78DBB2EA
S315080017E0013314211800FEF7FFFD0B00DAB2044B93
S315080017F01A7001231800BD4602B080BD3C070020C0
S31508001800EF070020D4050020EC07002080B582B041
S3150800181000AF3B00186059603B005B791A1C012336
S315080018201340DAB2364B01210A4090005A78042157
S315080018308A43111C021C0A435A703B001B791A1C66
S3150800184001231340DAB22E4B01210A4090185A7828
S3150800185002218A43111C021C0A435A70284B1A7823
S3150800186001218A431A70264B1A7802218A431A7074
S31508001870234B5B7802221340DBB2002B05D03B00DA
S315080018801B681A041F4B1A6010E01D4B5B78012277
S315080018901340DBB2002B04D13B001A68194B1A60BF
S315080018A004E03B001B681A02164B1A60144B5B785F
S315080018B004221340DBB2002B03D0124B1A68124BDA
S315080018C01A60124B01221A70114B01221A708023DA
S315080018D09B000121180003F057FE0E4B180004F078
S315080018E0E6FA0C4B0C4A1900100004F0D3FA094B1F
S315080018F0180004F011FBC046BD4602B080BDC046C4
S31508001900F4070020E8070020F0070020CC05002097
S31508001910EC070020580A0020050D000080B500AF2E
S31508001920064B1B78DAB2064B1B78DBB2D31A5A1E63
S315080019309341DBB21800BD4680BDC046EE070020C5
S31508001940E407002080B582B000AF78600C4B1B78A6
S31508001950DBB2013314211800FEF746FD0B00DAB29C
S31508001960074B1A70064B1B78DBB2013B7A680549B0
S31508001970DB00CB1803CB03C27868BD4602B080BD36
S31508001980EE0700202C05002080B582B000AF0F4B73
S315080019901B785B06DB0FDAB2FB1D1A700B4B0022B5
S315080019A01A80FB1D1B7801221340DAB2074B01216E
S315080019B00A4090011A7840218A43111C021C0A43E6
S315080019C01A70C046BD4602B080BDC046F407002066
S315080019D080B500AF634B1B78012B03D0614B1B7896
S315080019E0082B20D1604B1B789B07DB0FDAB25F4BC5
S315080019F001210A4010001A7801218A43111C021C91
S31508001A000A431A70584B1B78DB07DB0FDAB2574BC1
S31508001A1001210A4090181A7802218A43111C021CD7
S31508001A200A431A7099E04F4B1B78022B0CD04D4B8A
S31508001A301B78032B08D04B4B1B78042B04D0494B3F
S31508001A401B78082B00D088E0494B1B78DBB20133A2
S31508001A5014211800FEF7C8FC0B001A00454B1B782A
S31508001A60DBB29A4279D0424B1B78DBB21A00424B62
S31508001A701968424BD200D1503D4B1B78DBB2180097
S31508001A803F4B1B78D9B23D4AC300D31804330A1C0E
S31508001A901A70374B1B78DBB21800334B1B789B0642
S31508001AA0DB0FDAB23549C300CB1801210A40100012
S31508001AB05A7901218A43111C021C0A435A712C4B7C
S31508001AC01B78DBB21800284B1B78DB06DB0FDAB273
S31508001AD02A49C300CB1801210A4090185A790221D5
S31508001AE08A43111C021C0A435A71214B1B78DBB22C
S31508001AF018001D4B1B781B079B0FDAB21F49C30042
S31508001B00CB1803210A4090005A790C218A43111CEC
S31508001B10021C0A435A71164B1B78DBB21800124B8B
S31508001B201B781B06DB0FDAB21449C300CB18012158
S31508001B300A4010015A7910218A43111C021C0A43D3
S31508001B405A710B4B1B78DBB2013314211800FEF7D0
S31508001B504BFC0B00DAB2064B1A70FFF715FFC046AE
S31508001B60BD4680BDEC070020F407002000000020D9
S31508001B70E4070020EE070020400700202C0500207F
S31508001B807408002080B500AF034B5A7808210A4331
S31508001B905A70C046BD4680BDF407002080B500AF28
S31508001BA0FEF720FD03F03AF803F004F9A44B1B688E
S31508001BB0013305D1A24B00221A80A24B00221A80BB
S31508001BC0A14B1B68013306D19F4B012252421A8052
S31508001BD09E4BFF221A809E4B1B889E4A934202D137
S31508001BE09B4BFF221A809C4B1B889A4A934202D130
S31508001BF0994B00221A80994B1B88964A934202D128
S31508001C00964B00221A80964B1B88924A934202D121
S31508001C10934B00221A80934B1B888E4A934202D11B
S31508001C20904B04221A80904B1B888A4A934202D111
S31508001C308D4B01221A808D4B1B88864A934202D10E
S31508001C408A4B00221A808A4B1B88824A934202D109
S31508001C50874B00221A80874B1B887E4A934202D103
S31508001C60844B09221A80844B1B887A4A934202D1F4
S31508001C70814B08221A80814B1B88764A934202D1EF
S31508001C807E4BFF221A807E4B1B88724A934202D1F2
S31508001C907B4BFF221A807B4B1B886E4A934202D1EC
S31508001CA0784BFF221A80784B1B886A4A934202D1E6
S31508001CB0754B01221A80754B1B88664A934202D1DE
S31508001CC0724B01221A80724B1B88624A934202D1D8
S31508001CD06F4B00221A806F4B1B885E4A934202D1D3
S31508001CE06C4B04221A806C4B1B885A4A934202D1C9
S31508001CF0694B0A221A80694B1B88564A934202D1BD
S31508001D00664B01221A80664B1B88524A934202D1BF
S31508001D10634B1E221A80634B1B884E4A934202D19C
S31508001D20604B1E221A80604B1B884A4A934202D196
S31508001D305D4B0A221A805D4B1B88464A934202D1A4
S31508001D405A4B05221A8003F049F8414B1A88584B1A
S31508001D501A803B4B1A68574B1A60574B574A1A60FA
S31508001D60394B1A68564B1A603F4B1A88554B1A80DE
S31508001D70394B1A88544B1A80384B1A88534B1A8099
S31508001D803A4B1A88524B1A80394B1A88514B1A808B
S31508001D90334B1A88504B1A80324B1A884F4B1A808D
S31508001DA0344B1A884E4B1A80344B1A884D4B1A807E
S31508001DB0334B1A884C4B1A80324B1A884B4B1A8075
S31508001DC0314B1A884A4B1A80324B1A88494B1A806B
S31508001DD0314B1A88484B1A80304B1A88474B1A8061
S31508001DE02A4B1A88464B1A80294B1A88454B1A8063
S31508001DF0454B00221A70454B00221A70284B1A8848
S31508001E00434B1A80274B1A88424B1A80264B1A884E
S31508001E10414B1A80254B1A88404B1A802E4B1B883B
S31508001E20012B03D13E4B9622D2001A80274B1B88E2
S31508001E30DBB21800FEF700FCC046BD4680BDC046B2
S31508001E4000E8000802E8000804E8000806E80008B8
S31508001E5008E80008FFFF00000AE800080CE8000888
S31508001E600EE8000810E8000800EC000802EC00087C
S31508001E7004EC000806EC000808EC000812E8000864
S31508001E8014E8000816E8000818E800081AE8000828
S31508001E901CE800080AEC00080CEC00080EEC000828
S31508001EA01EE8000820E8000822E8000824E80008E0
S31508001EB0980800207C08002008000020FFFFFF008B
S31508001EC0AC080020B2080020A00800209A080020CC
S31508001ED08E080020A4080020BA080020BC080020AC
S31508001EE084080020B4080020A208002080080020EA
S31508001EF09E0800209C0800208C080020A8080020C6
S31508001F00B0080020B6080020AA080020940800207F
S31508001F10B8080020960800200E00002010000020B7
S31508001F20D0000020B0B5F2B000AFFFF7F7FC031EF3
S31508001F3001D102F058FAD02464003B191800FFF7C3
S31508001F4001FD3B19DC225200BA181360D64B1B78E8
S31508001F50062B20D89A00D54BD3181B689F46D24B20
S31508001F6001221A7018E0D04B02221A7014E0CE4BE8
S31508001F7003221A7010E0CC4B04221A700CE0CA4BEC
S31508001F8005221A7008E0C84B06221A7004E0C64BF0
S31508001F9000221A7000E0C046DC235B00FB181B68B1
S31508001FA05B7902221340DBB2002B01D102F009FA59
S31508001FB0DC235B00FB181B685B790C221340DBB241
S31508001FC0002B01D002F0FDF9DC235B00FB181B682F
S31508001FD05B7901221340DBB2002B01D002F0E9F94C
S31508001FE0DC235B00FB181B681B68D4225200B91857
S31508001FF00B60BB181A6880235B02134001D102F0FC
S31508002000E0F9D4235B00FB18DA2149007A1813603B
S31508002010C823FF33FB1800221A707B181B689B78AD
S315080020205BB2002B0FDBDA235B00FB181B689B787F
S315080020301A009F4B1B885B0001339A4201D100F0BE
S3150800204028FC02F0D0F9DA235B00FB181B689B78A2
S31508002050BF2B21D8DA235B00FB181B689B785B082B
S31508002060DAB2B023FF33FB181F210A401A70914BCE
S315080020701B68002B09D0B023FF33FB181B780122FD
S315080020809A40131E01D0012300E00023002B01D043
S3150800209000F0FFFB02F0A7F9DA235B00FB181B68C8
S315080020A09B78FD2B07D1824B1B88FF2B01D100F0B3
S315080020B0F0FB02F098F9DA235B00FB181B689B78A3
S315080020C0E02B08D9DA235B00FB181B689B78FC2BEE
S315080020D001D802F087F9DA235B00FB181B689B78A6
S315080020E0C12B00D028E3DA235B00FB181B685B785A
S315080020F0332B00D90FE39A006F4BD3181B689F4602
S31508002100DA235B00FB181B681B78002B00D0EBE278
S315080021106A4B00221A706A4B00221A70E4E2D42332
S315080021205B00FB181A68674B1B689A4202D0FFF7D8
S3150800213029FDF0E2DC235B00FB181B685B791022A3
S315080021401340DBB2002B28D0DA235B00FB181B6890
S315080021501B787F2B03D1564B1B88FF2B17D0DA230E
S315080021605B00FB181B681B78FF2B10D0DA235B007B
S31508002170FB181B681B783F2B0FD8DA235B00FB186C
S315080021801B681B789AB24A4B1B889A4205D14B4B5F
S3150800219001221A704A4B0F221A704B4B01221A70F1
S315080021A0B9E2D4235B00FB181A68464B1B689A42AF
S315080021B002D0FFF7E7FCAEE2DC235B00FB181B68E6
S315080021C05B7910221340DBB2002B1DD03B4B1B78EA
S315080021D0002B19D0DA235B00FB181B681B78002B31
S315080021E012D13A4B180003F07BFE0200FA235A4339
S315080021F0374B1A6002F07EFB354B1B68354A934213
S3150800220002D0354B00221A702F4B01221A7082E237
S315080022102A4B1B78012B00D068E22D4B1A682F4BEE
S315080022201B689A4200D961E2DA235B00FB181B6837
S315080022301B78002B00D059E2CC2149007B18284A8C
S3150800224011CA11C37B1818685968FFF771FA4DE26D
S315080022501A4B1B78012B00D04AE21D4B1A681F4BFC
S315080022601B689A4200D043E2DA235B00FB181B681E
S315080022701B78002B00D03BE2104B02221A7037E283
S315080022800E4B1B78002B00D134E2DA235B00FB18D7
S315080022901B681B781B041A00104B1B681B041B0CBD
S315080022A01A430E4B1A6025E2CF000020D489000895
S315080022B0980800207C080020F0890008B900002052
S315080022C09408002088080020CE000020180A002064
S315080022D0AC080020FFFFFF000D00002008000020CA
S315080022E044880008C94B1B78002B00D104E2DA2386
S315080022F05B00FB181B681B781B021900C44B1B6884
S31508002300C44A13400A001A43C14B1A60F4E1BF4B92
S315080023101B78002B00D1F1E1DA235B00FB181B6860
S315080023201B781900BA4B1B68BB4A13400A001A43AC
S31508002330B74B1A60E2E1B54B1B78002B00D1DFE101
S31508002340B64B1A68B24B1B689A4200D0D8E1DA231A
S315080023505B00FB181B681B783F2B00D9D0E1DA23FA
S315080023605B00FB181B681B789AB2AD4B1A8002F00B
S31508002370C1FAC5E1A54B1B78002B00D1C2E1DA23CF
S315080023805B00FB181B681B789AB2A54B1B889A4200
S3150800239000D0B7E1C82149007B18A24A11CA11C367
S315080023A07B1818685968FFF7C3F9ABE1974B1B7898
S315080023B0002B00D1A8E1994B1A68954B1B689A42E5
S315080023C000D0A1E1DA235B00FB181B681B78002B01
S315080023D000D099E1924B1B881A00C42149007B184A
S315080023E01A607B1801221A717B1800225A717B1811
S315080023F001229A717B1818685968FFF799F983E1E1
S31508002400C823FF33FB1801221A70874B1B78012B50
S3150800241000D07BE1854B1878854B1978DA235B0069
S31508002420FB181B681B78D8256D007C191A0002F06A
S3150800243059FD030023707B191B78012B2CD0DA2356
S315080024405B00FB181B681B781A00C02149007B1823
S315080024501A607B1801221A717B1800225A717B18A0
S3150800246001229A717B1818685968FFF761F91420D8
S3150800247003F0F8FDD8235B00FB181B78022B0BD161
S315080024806A4B18786A4B1978DA235B00FB181B68C5
S315080024901B781A0002F0A4FD654B1B78FF2B00D1B0
S315080024A034E1624B1B78BD2B00D02FE1604B1B78C3
S315080024B00133DAB25E4B1A7028E1C823FF33FB18E2
S315080024C001221A70584B1B78012B00D020E1574B7C
S315080024D01878574B1978DA235B00FB181B681B78AA
S315080024E0B225FF357C191A0002F0FCFC03002370A4
S315080024F07B191B78022B0BD14C4B18784C4B19784F
S31508002500DA235B00FB181B681B781A0002F068FDCB
S31508002510474B1B78FF2B00D1FAE0444B1B78BD2BA9
S3150800252000D0F5E0424B1B780133DAB2404B1A7003
S31508002530EEE0C823FF33FB1801221A70DA235B008A
S31508002540FB181B681A783A4B1A70E4E0C823FF3365
S31508002550FB1801221A70DA235B00FB181B681A782D
S31508002560324B1A70D7E0C823FF33FB1801221A70C2
S31508002570DA235B00FB181B681A782E4B1A70CAE020
S31508002580DA235B00FB181B681B785BB2002B00DBA9
S31508002590C0E0DA235B00FB181B681B781A000723C8
S315080025A01340052B00DDB5E0DA235B00FB181B683A
S315080025B01B781A0007231340002B00DCAAE0DA2355
S315080025C05B00FB181B681B781A002023134004D0F5
S315080025D0194B1B88012B00D09CE0DA235B00FB1803
S315080025E01B681B781A002023134027D1104B1B7831
S315080025F01A040E4B1B781B0213430E4A1278134318
S31508002600E0225200BA18136022E0C046B900002042
S3150800261008000020FF00FF0000FFFF00AC080020B4
S315080026209808002044880008B8000020B50000205B
S31508002630B4000020B60000208E080020E34B1B786B
S315080026401B02E34A12781343E0225200BA181360B9
S31508002650DA2464003B191B681A78D92040003B1815
S3150800266007210A401A703B191B681B78DB08DAB287
S31508002670C023FF33FB1803210A401A70BC246400E8
S315080026803B19E0225200BA1812681A603B19002258
S315080026901A713B1900225A713B1905003A1812782B
S315080026A09A713B1918685968FFF742F828003B18D1
S315080026B000221A703B193A1812789A710DE0BC2359
S315080026C05B00FB1818685968FFF732F8C021FF311C
S315080026D07B181A787B18013A1A70C023FF33FB1847
S315080026E01B78002BEBD115E0C04614E0C04612E07B
S315080026F0C04610E0C0460EE0C0460CE0C0460AE000
S31508002700C04608E0C04606E0C04604E0C04602E00F
S31508002710C04600E0C046AF4B1B78002B04D1D4233B
S315080027205B00FB181A6800E00022AB4B1A60A94B45
S3150800273000221A7001F057FEDA235B00FB181B68AB
S315080027409B78C52B65D1C823FF33FB1801221A7065
S31508002750A24B1B78012B54D1DA2464003B191B6861
S315080027605A789A4B1A709A4B1878984B19783B19DD
S315080027701B681B78B425FF357C191A0002F0B2FBDA
S31508002780030023707B191B78012B2CD0DA235B00FE
S31508002790FB181B681B781A00B82149007B181A60B9
S315080027A07B1801221A717B1800225A717B180122A4
S315080027B09A717B1818685968FEF7BAFF142003F057
S315080027C051FCB423FF33FB181B78022B0BD1804B2B
S315080027D018787E4B1978DA235B00FB181B681B7880
S315080027E01A0002F0FDFB794B1B78FF2B09D0784BBA
S315080027F01B78BD2B05D1754B1B780133DAB2734BA9
S315080028001A70D4235B00FB181A68734B1A6001F020
S31508002810EAFDDA235B00FB181B689B78C72B18D1E7
S31508002820C823FF33FB1801221A70DA2149007B18E6
S315080028301B685A78664B1A707B181B681A78634BA4
S315080028401A70D4235B00FB181A68634B1A6001F0F0
S31508002850CAFDDA235B00FB181B689B78C92B18D1C5
S31508002860C823FF33FB1801221A70DA2149007B18A6
S315080028701B685A785A4B1A707B181B681A78544B7F
S315080028801A70D4235B00FB181A68534B1A6001F0C0
S31508002890AAFDDA235B00FB181B685B78FE2B01D0C8
S315080028A000F004FFDA235B00FB181B681B788F2BEC
S315080028B001D901F057FD9A004A4BD3181B689F4669
S315080028C0D4235B00FB181A68434B1B689A4203D053
S315080028D0FFF758F901F063FD80231B020021180059
S315080028E002F052FE404B414A1A803A4B01221A70B6
S315080028F001F055FDD4235B00FB181A68364B1B689C
S315080029009A4203D0FFF73EF901F049FDDC235B004C
S31508002910FB181B685B7910221340DBB2002B02D030
S31508002920334B00221A702B4B01221A7001F037FD27
S31508002930D4235B00FB181A68274B1B689A4203D0FE
S31508002940FFF720F901F02BFDDC235B00FB181B6861
S315080029505B7910221340DBB2002B01D001F012FF85
S315080029601C4B01221A7001F01AFD184B1B7818002F
S3150800297002F0B2FC01F013FDD4235B00FB181A68C1
S31508002980154B1B689A4203D0FFF7FCF801F007FDC8
S31508002990DC235B00FB181B685B7910221340DBB253
S315080029A0002B0ED0094B1B78FF2B03D0074B1B7847
S315080029B03F2B06D8054B1B789AB20E4B1A8001F0AE
S315080029C099FF044B01221A7001F0E9FCB4000020BB
S315080029D0B5000020CE00002088080020B80000209E
S315080029E0B6000020C08A0008CC000020102700008E
S315080029F00C00002098080020D4235B00FB181A68F6
S31508002A00DD4B1B689A4203D0FFF7BCF801F0C7FC00
S31508002A10DC235B00FB181B685B7910221340DBB2D2
S31508002A20002B07D0D54B01221A70C823FF33FB1899
S31508002A3001221A70D24B01221A7001F0B0FCD4237D
S31508002A405B00FB181A68CC4B1B689A4203D0FFF749
S31508002A5099F801F0A4FCDC235B00FB181B685B7982
S31508002A6010221340DBB2002B0ED0C64B1B88012B5D
S31508002A700AD1C54B01221A80C34B1B88DBB218004A
S31508002A80FDF7DAFD01F036FFBD4B01221A7001F0A1
S31508002A9086FCD4235B00FB181A68B74B1B689A425E
S31508002AA003D0FFF76FF801F07AFCDC235B00FB1814
S31508002AB01B685B7910221340DBB2002B12D0B34B94
S31508002AC01B88002B0ED1AF4B1B88012B0AD1AE4BAE
S31508002AD000221A80AC4B1B88DBB21800FDF7ACFD50
S31508002AE001F008FFA64B01221A7001F058FCD42306
S31508002AF05B00FB181A68A04B1B689A4203D0FFF7C5
S31508002B0041F801F04CFC9E4B01221A7001F047FC7B
S31508002B10D4235B00FB181A68974B1B689A4203D0AC
S31508002B20FFF730F801F03BFCDC235B00FB181B6861
S31508002B305B7910221340DBB2002B14D0944B1B7820
S31508002B401B021A00934B1B681343934A12781A43C5
S31508002B50904B1A6001F0CEFE8E4B1B68002B02D0FC
S31508002B608E4B00221A70864B01221A7001F017FC50
S31508002B70D4235B00FB181A687F4B1B689A4203D064
S31508002B80FFF700F801F00BFCDC235B00FB181B6861
S31508002B905B7910221340DBB2002B15D07C4B1B78D7
S31508002BA01B061A007B4B1B6813437B4A12781204D8
S31508002BB01A43784B1A6001F09DFE764B1B68002B72
S31508002BC002D0764B00221A706D4B01221A7001F062
S31508002BD0E6FBD4235B00FB181A68674B1B689A420E
S31508002BE003D0FEF7CFFF01F0DAFBDC235B00FB180E
S31508002BF01B685B7910221340DBB2002B16D0644B9E
S31508002C001B781B02DB431A00624B1B681340624A9F
S31508002C101278D2431A405F4B1A6001F06BFE5D4B87
S31508002C201B68002B02D05D4B00221A70544B012200
S31508002C301A7001F0B4FBD4235B00FB181A684E4BDC
S31508002C401B689A4203D0FEF79DFF01F0A8FBDC2320
S31508002C505B00FB181B685B7910221340DBB2002B64
S31508002C6017D04B4B1B781B06DB431A00494B1B68D6
S31508002C701340494A12781204D2431A40454B1A6047
S31508002C8001F038FE434B1B68002B02D0434B002251
S31508002C901A703B4B01221A7001F081FBD4235B00AA
S31508002CA0FB181A68344B1B689A4203D0FEF76AFF72
S31508002CB001F075FBDC235B00FB181B685B791022AF
S31508002CC01340DBB2002B05D0354B01221A70354B69
S31508002CD00F221A702A4B01221A7001F060FBD423C6
S31508002CE05B00FB181A68244B1B689A4203D0FEF750
S31508002CF049FF01F054FBDC235B00FB181B685B797A
S31508002D0010221340DBB2002B05D0254B00221A7087
S31508002D10244B00221A701A4B01221A7001F03FFB4D
S31508002D20D4235B00FB181A68134B1B689A4203D01E
S31508002D30FEF728FF01F033FBDC235B00FB181B685A
S31508002D405B7910221340DBB2002B04D0164B01220C
S31508002D501A8001F0CFFD0A4B01221A7001F01FFB01
S31508002D60D4235B00FB181A68034B1B689A421DD0D4
S31508002D70FEF708FF01F013FB88080020B8000020C2
S31508002D80CE0000208E0800209A080020A408002003
S31508002D90B60000207C080020B50000200D000020A9
S31508002DA0B7000020AA080020BA080020DC235B0030
S31508002DB0FB181B685B7910221340DBB2002B04D08A
S31508002DC0DF4B00221A8001F095FDDE4B01221A70B6
S31508002DD001F0E5FAD4235B00FB181A68DA4B1B6886
S31508002DE09A4203D0FEF7CEFE01F0D9FADC235B0047
S31508002DF0FB181B685B7910221340DBB2002B01D04D
S31508002E0001F078FDCF4B01221A7001F0C8FACF4BBA
S31508002E101B88002B07D0CE4B1B7808221343DAB247
S31508002E20CB4B1A7006E0CA4B1B7808229343DAB2DA
S31508002E30C74B1A70C74B1B78002B07D0C44B1B789F
S31508002E4001221343DAB2C24B1A7006E0C04B1B7854
S31508002E5001229343DAB2BE4B1A70BF4B1B78002B84
S31508002E6007D0BB4B1B7802221343DAB2B84B1A7051
S31508002E7006E0B74B1B7802229343DAB2B44B1A70BA
S31508002E80B64B1B88FF2B07D1B14B1B780422134383
S31508002E90DAB2AF4B1A7006E0AD4B1B7804229343A7
S31508002EA0DAB2AB4B1A70AE4B1B78002B07D0A84B87
S31508002EB01B7810221343DAB2A54B1A7006E0A44B0E
S31508002EC01B7810229343DAB2A14B1A70A54B1B78D4
S31508002ED0002B07D09E4B1B7820221343DAB29C4B5B
S31508002EE01A7006E09A4B1B7820229343DAB2984B65
S31508002EF01A709D4B1B78002B07D0954B1B784022E8
S31508002F001343DAB2924B1A7006E0914B1B784022B3
S31508002F109343DAB28E4B1A708D4B1B781A00B42184
S31508002F2049007B181A607B1801221A717B18002247
S31508002F305A717B1801229A717B1818685968FEF72E
S31508002F40F7FB01F02CFA894B1B88002B07D0884B1E
S31508002F501B7804221343DAB2854B1A7006E0844BB9
S31508002F601B7804229343DAB2814B1A70814B1B8873
S31508002F70002B07D07E4B1B7801221343DAB27C4B19
S31508002F801A7006E07A4B1B7801229343DAB2784B23
S31508002F901A70794B1B88002B07D0754B1B780222B9
S31508002FA01343DAB2724B1A7006E0714B1B78022291
S31508002FB09343DAB26E4B1A706D4B1B781A00AE212A
S31508002FC049007B181A607B1801221A717B180022A7
S31508002FD05A717B1801229A717B1818685968FEF78E
S31508002FE0A7FB01F0DCF9654B1B78002B01D101F03A
S31508002FF0BBF9624B1B781A00AA2149007B181A6094
S315080030007B1801221A717B1800225A717B1801223B
S315080030109A717B1818685968FEF78AFB01F0A4F9BB
S315080030204E4B1B88FF2B01D001F0A0F9A6214900C1
S315080030307B18534A11CA11C37B1818685968FEF7DA
S3150800304077FB01F093F91721002001F0DBFE031C42
S315080030501A1CB22149007B181A807B181B78012B91
S3150800306001D001F085F9B2235B00FB185B781A00E2
S31508003070A22149007B181A607B1801221A717B1855
S3150800308000225A717B1801229A717B1818685968B0
S31508003090FEF74EFB01F06CF9C823FF33FB1801223B
S315080030A01A70384B1B781A009E2149007B181A6043
S315080030B07B1801221A717B1800225A717B1801228B
S315080030C09A717B1818685968FEF732FB01F067F9A0
S315080030D0C823FF33FB1801221A702B4B1B781A00E2
S315080030E09A2149007B181A607B1801221A717B18ED
S315080030F000225A717B1801229A717B181868596840
S31508003100FEF716FB01F04BF9C823FF33FB18012223
S315080031101A701E4B1B781A00962149007B181A60F4
S315080031207B1801221A717B1800225A717B1801221A
S315080031309A717B1818685968FEF7FAFA01F02FF9A0
S31508003140BA080020CE000020880800209A0800202F
S31508003150BD000020BB000020B70000209808002012
S31508003160BA0000200C0000200D000020A408002052
S31508003170BC0000208E080020B2080020BE000020F7
S3150800318044880008B4000020B5000020B6000020DE
S31508003190F84B1B881A00922149007B181A607B1885
S315080031A001221A717B1800225A717B1801229A7122
S315080031B07B1818685968FEF7BBFA01F0F0F8EE4B71
S315080031C01B681B0CFF221A408E2149007B181A60C7
S315080031D07B1801221A717B1800225A717B1801226A
S315080031E09A717B1818685968FEF7A2FA01F0D7F8A1
S315080031F0E14B1B681B0AFF221A408A2149007B18EB
S315080032001A607B1801221A717B1800225A717B18E2
S3150800321001229A717B1818685968FEF789FA01F035
S31508003220BEF8D54B1B68FF221A40862149007B1839
S315080032301A607B1801221A717B1800225A717B18B2
S3150800324001229A717B1818685968FEF771FA01F01D
S31508003250A6F8CA4B1A78CA4B1B781900100001F059
S31508003260D1FD031C1A1C842149007B181A807B187F
S315080032701B78012B27D184235B00FB185B781A0087
S315080032807B1CFF331A607B1CFF3301221A717B1CDF
S31508003290FF3300225A717B1CFF3301229A717B1C73
S315080032A0FF3318685968FEF743FAB54B1B78FF2BAE
S315080032B001D101F05FF8B24B1B780133DAB2B04B9B
S315080032C01A7001F057F8AD4B1B78002B05D0AB4BA5
S315080032D01B78BD2B01D001F04DF8A94B1B780133A3
S315080032E0DAB2A74B1A7001F045F8A64B1B88002BDB
S315080032F001D101F041F8F8217B18A34A11CA11C37C
S315080033007B1818685968FEF713FA01F035F89F4BD1
S315080033101B881A00F0217B181A607B1801221A7183
S315080033207B1800225A717B1801229A717B1818683B
S315080033305968FEF7FDF901F032F8944B1B88802B8B
S3150800334001D801F01BF8E8217B188F4A11CA11C36E
S315080033507B1818685968FEF7EBF901F00FF88C4BE3
S315080033601B78002B01D101F00BF8E0217B18864A67
S3150800337011CA11C37B1818685968FEF7D9F900F005
S31508003380FFFF844B1B68FF221A40D8217B181A605E
S315080033907B1801221A717B1800225A717B180122A8
S315080033A09A717B1818685968FEF7C2F900F0F7FF9A
S315080033B0784B1B681B0AFF221A40D0217B181A601B
S315080033C07B1801221A717B1800225A717B18012278
S315080033D09A717B1818685968FEF7AAF900F0DFFF9A
S315080033E06C4B1B681B0CFF221A406B4BE4214900EF
S315080033F08C46BC4463441A60674BE42252009446E8
S31508003400BC44634401221A71634BE4225200944679
S31508003410BC44634400225A715F4BE422520094462E
S31508003420BC44634401229A715B4BE42252009446E1
S31508003430BC44634418685968FEF77AF900F0AFFF90
S31508003440544B1B681A0E554BE42149008C46BC4464
S3150800345063441A60514BE42252009446BC446344C8
S3150800346001221A714D4BE42252009446BC4463442F
S3150800347000225A71494BE42252009446BC446344E4
S3150800348001229A71454BE42252009446BC44634497
S3150800349018685968FEF74CF900F081FF404B1B8805
S315080034A0002B01D100F06EFF3E4BE42252009446F9
S315080034B0BC446344344A03CA03C33A4BE422520069
S315080034C09446BC44634418685968FEF731F900F01D
S315080034D059FF2B4B1B78042B01D000F055FF324BBC
S315080034E01B881A00314BE42149008C46BC446344CE
S315080034F01A602E4BE42252009446BC4463440122CF
S315080035001A712A4BE42252009446BC4463440022B2
S315080035105A71264BE42252009446BC446344012265
S315080035209A71224BE42252009446BC4463441868BC
S315080035305968FEF7FDF800F027FF01F015FB1C4B54
S315080035401B78002B01D100F021FF1A4BE422520010
S315080035509446BC4463440C4A03CA03C3154BE4228D
S3150800356052009446BC44634418685968FEF7E0F86C
S3150800357000F00CFFB2080020AC080020B5000020BF
S31508003580B40000209A08002044880008A0080020FB
S31508003590B70000207C08002000FFFFFFF8FEFFFFB1
S315080035A0BA080020F0FEFFFF82080020E8FEFFFFB1
S315080035B00D000020E0FEFFFFD44B1B88002B01D135
S315080035C000F0E6FED24BE42252009446BC44634423
S315080035D0D04A03CA03C3CE4BE42252009446BC44E5
S315080035E0634418685968FEF7A3F800F0D1FED4239F
S315080035F05B00FB181A68C84B1B689A4203D0FEF793
S31508003600C1FA00F0CCFEDC235B00FB181B685B7973
S3150800361010221340DBB2002B15D0C04B1B78012BB0
S3150800362011D9BE4B1B78052B0DD8BC4B1B789AB20B
S31508003630BB4B1A8001F05EF9B94B1B88042B02D0EC
S31508003640B84B00221A70B84B01221A7000F0A7FE78
S31508003650B34B1B881A00B54BE42149008C46BC4481
S3150800366063441A60B14BE42252009446BC44634456
S3150800367001221A71AD4BE42252009446BC446344BD
S3150800368000225A71A94BE42252009446BC44634472
S3150800369001229A71A54BE42252009446BC44634425
S315080036A018685968FEF744F800F079FEDA235B00DB
S315080036B0FB181B685B78FF2B45D0DA235B00FB18E9
S315080036C01B685B789AB29A4B1B889A423BD0DA23DE
S315080036D05B00FB181B685B781A00964B1B88C03387
S315080036E09A4230D0944B1B88FE2B0AD8DA235B000B
S315080036F0FB181B685B781A008F4B1B8880339A422D
S3150800370021D08E4B1B88FE2B0AD8DA235B00FB18C8
S315080037101B685B781A008A4B1B8880339A4212D042
S31508003720874B1B88FE2B01D900F039FEDA235B0094
S31508003730FB181B685B781A00804B1B8880339A42FB
S3150800374001D000F02CFEDA235B00FB181B681B78FF
S31508003750303B622B01D900F022FE9A00794BD31830
S315080037601B689F46D4235B00FB181A686A4B1B68C4
S315080037709A4203D0FEF706FA00F011FEDC235B003E
S31508003780FB181B685B7910221340DBB2002B04D0B0
S315080037906D4B01221A8001F0ADF8634B01221A70B5
S315080037A000F0FDFDD4235B00FB181A685A4B1B6812
S315080037B09A4203D0FEF7E6F900F0F1FDDC235B0040
S315080037C0FB181B685B7910221340DBB2002B04D070
S315080037D05D4B00221A8001F08DF8534B01221A70B6
S315080037E000F0DDFDD4235B00FB181A684A4B1B6802
S315080037F09A4203D0FEF7C6F900F0D1FDDC235B0040
S31508003800FB181B685B7910221340DBB2002B15D01E
S31508003810424B1B781F2B03D9404B1B78FF2B0DD12E
S315080038203E4B1B789AB2444B1A8001F063F8424B20
S315080038301B88FF2B02D03B4B00221A703A4B012201
S315080038401A7000F0ACFDD4235B00FB181A68324BE3
S315080038501B689A4203D0FEF795F900F0A0FDDC2319
S315080038605B00FB181B685B7910221340DBB2002B48
S3150800387015D02A4B1B781F2B03D9284B1B78FF2BF7
S315080038800DD1264B1B789AB22C4B1A8001F032F8D0
S315080038902A4B1B88FF2B02D0224B00221A70224B80
S315080038A001221A7000F07BFDD4235B00FB181A680E
S315080038B0194B1B689A4203D0FEF764F900F06FFDB6
S315080038C0DC235B00FB181B685B7910221340DBB214
S315080038D0002B15D0114B1B781F2B03D90F4B1B78C8
S315080038E0FF2B0DD10D4B1B789AB2154B1A8001F0A0
S315080038F001F8134B1B88FF2B02D00A4B00221A70C3
S31508003900094B01221A7000F04AFDC046A40800209F
S31508003910D8FEFFFF4488000888080020B40000206D
S31508003920BC0800200D000020CE000020D0FEFFFFBE
S31508003930A80800209C080020B4080020A20800203F
S3150800394080080020008D00089E080020D4235B0014
S31508003950FB181A68D74B1B689A4203D0FEF712F970
S3150800396000F01DFDDC235B00FB181B685B79102249
S315080039701340DBB2002B15D0CF4B1B78012B11D986
S31508003980CD4B1B78052B0DD8CB4B1B789AB2CB4B5E
S315080039901A8000F0AFFFC94B1B88042B02D0C84B16
S315080039A000221A70C74B01221A7000F0F8FCD423C3
S315080039B05B00FB181A68BF4B1B689A4203D0FEF7D8
S315080039C0E1F800F0ECFCDC235B00FB181B685B7974
S315080039D010221340DBB2002B11D0B74B1B78042BF7
S315080039E00DD8B54B1B789AB2B74B1A8000F082FFF8
S315080039F0B54B1B88002B02D0B14B00221A70B14B75
S31508003A0001221A7000F0CBFCD4235B00FB181A685D
S31508003A10A84B1B689A4203D0FEF7B4F800F0BFFC27
S31508003A20DC235B00FB181B685B7910221340DBB2B2
S31508003A30002B2DD0A54B1B88002B17D0A44B1B7829
S31508003A401B041AB2A34B1B781B021BB213431AB2F0
S31508003A50994B1B781BB213431BB29AB29E4B1A8022
S31508003A6000F048FF964B00221A7011E0924B1B7823
S31508003A70012B06D8904B1B789AB2974B1A8000F008
S31508003A8039FF954B1B88012B02D08D4B00221A70EB
S31508003A908C4B01221A7000F082FC904B1B881A008E
S31508003AA08F4BE42149008C46BC4463441A608C4B16
S31508003AB0E42252009446BC44634401221A71884B9E
S31508003AC0E42252009446BC44634400225A71844B53
S31508003AD0E42252009446BC44634401229A71804B06
S31508003AE0E42252009446BC44634418685968FDF7BA
S31508003AF01FFE00F054FC7B4B1B881A007A4BE4210E
S31508003B0049008C46BC4463441A60774BE422520051
S31508003B109446BC44634401221A71734BE422520052
S31508003B209446BC44634400225A716F4BE422520007
S31508003B309446BC44634401229A716B4BE4225200BA
S31508003B409446BC44634418685968FDF7F1FD00F0D3
S31508003B5026FC664B1B78DB015AB2654B1B889B011A
S31508003B605BB213435AB2D72149007B181A707B18E7
S31508003B701A78604BE42149008C46BC4463441A60B9
S31508003B805C4BE42252009446BC44634401221A71F9
S31508003B90584BE42252009446BC44634400225A71AE
S31508003BA0544BE42252009446BC44634401229A7161
S31508003BB0504BE42252009446BC4463441868596842
S31508003BC0FDF7B6FD00F0EBFB494B1B88012B01D036
S31508003BD000F0E0FB484BE42252009446BC446344A0
S31508003BE0464A03CA03C3444BE42252009446BC44E3
S31508003BF0634418685968FDF79BFD00F0CBFB404B02
S31508003C001B881A003F4BE42149008C46BC44634498
S31508003C101A603C4BE42252009446BC446344012299
S31508003C201A71384BE42252009446BC44634400227D
S31508003C305A71344BE42252009446BC446344012230
S31508003C409A71304BE42252009446BC446344186887
S31508003C505968FDF76DFDA2E32B4B1B881A002B4B09
S31508003C60E42149008C46BC4463441A60274BE4228D
S31508003C7052009446BC44634401221A71234BE42241
S31508003C8052009446BC44634400225A711F4BE422F6
S31508003C9052009446BC44634401229A711B4BE422A9
S31508003CA052009446BC44634418685968FDF740FDC1
S31508003CB075E3C04688080020B4000020BC08002030
S31508003CC00D000020CE000020B60800209A0800202B
S31508003CD0B6000020B5000020B00800209C0800208F
S31508003CE0C8FEFFFF8C080020C0FEFFFFBE000020B4
S31508003CF09E080020B8FEFFFFB0FEFFFF44880008BC
S31508003D00B4080020A8FEFFFFA2080020A0FEFFFFBF
S31508003D10E54B1B881A00E54BE42149008C46BC4458
S31508003D2063441A60E14BE42252009446BC4463445F
S31508003D3001221A71DD4BE42252009446BC446344C6
S31508003D4000225A71D94BE42252009446BC4463447B
S31508003D5001229A71D54BE42252009446BC4463442E
S31508003D6018685968FDF7E4FC19E3D14B1B881A005B
S31508003D70D04BE42149008C46BC4463441A60CD4BC1
S31508003D80E42252009446BC44634401221A71C94B8A
S31508003D90E42252009446BC44634400225A71C54B3F
S31508003DA0E42252009446BC44634401229A71C14BF2
S31508003DB0E42252009446BC44634418685968FDF7E7
S31508003DC0B7FCECE2BC4B1B881A00BC4B1A60BC4B18
S31508003DD01B880733002B00DA0733DB10DBB2013B05
S31508003DE0DAB2B84B1A70B54B1A68B64B1B78DB00BB
S31508003DF0DA401300FF221A40B34BE42149008C46EF
S31508003E00BC4463441A60B04BE42252009446BC4456
S31508003E10634401221A71AC4BE42252009446BC4416
S31508003E20634400225A71A84BE42252009446BC44CB
S31508003E30634401229A71A44BE42252009446BC447E
S31508003E40634418685968FDF773FCA8E29D4B1B7814
S31508003E50002B00D1A0E29B4B1B78013BDAB2994BB1
S31508003E601A70964B1A68974B1B78DB00DA401300DA
S31508003E70FF221A40954BE42149008C46BC44634412
S31508003E801A60924BE42252009446BC4463440122D1
S31508003E901A718E4BE42252009446BC4463440022B5
S31508003EA05A718A4BE42252009446BC446344012268
S31508003EB09A71864BE42252009446BC4463441868BF
S31508003EC05968FDF735FC67E2814B1B881A00814B60
S31508003ED0E42149008C46BC4463441A607D4BE422C5
S31508003EE052009446BC44634401221A71794BE42279
S31508003EF052009446BC44634400225A71754BE4222E
S31508003F0052009446BC44634401229A71714BE422E0
S31508003F1052009446BC44634418685968FDF708FC87
S31508003F203DE26D4B1B881A00FF231A406B4BE421B8
S31508003F3049008C46BC4463441A60684BE42252002C
S31508003F409446BC44634401221A71644BE42252002D
S31508003F509446BC44634400225A71604BE4225200E2
S31508003F609446BC44634401229A715C4BE422520095
S31508003F709446BC44634418685968FDF7D9FB0EE2B9
S31508003F80554B1B881B0A9BB21A00FF231A40544B39
S31508003F90E42149008C46BC4463441A60504BE42231
S31508003FA052009446BC44634401221A714C4BE422E5
S31508003FB052009446BC44634400225A71484BE4229A
S31508003FC052009446BC44634401229A71444BE4224D
S31508003FD052009446BC44634418685968FDF7A8FB28
S31508003FE0DDE1404BE42252009446BC4463443E4A19
S31508003FF003CA03C33B4BE42252009446BC446344C1
S3150800400018685968FDF794FBC9E1D4235B00FB18CF
S315080040101A68364B1B689A4202D0FDF7B3FDBEE11B
S31508004020DC235B00FB181B685B7910221340DBB2AC
S31508004030002B0BD02E4B1B789AB22E4B1A802D4B89
S315080040401B881E2B02D02C4B00221A702B4B0122E8
S315080040501A70A4E1D4235B00FB181A68234B1B686B
S315080040609A4202D0FDF78EFD99E1DC235B00FB182E
S315080040701B685B7910221340DBB2002B0FD01C4B58
S315080040801B78192B0BD81A4B1B789AB21C4B1A8023
S315080040901B4B1B88052B02D0174B00221A70174B97
S315080040A001221A707BE1C0468008002098FEFFFFB7
S315080040B0B608002090FEFFFFA60800209008002002
S315080040C08C080020AB08002088FEFFFF80FEFFFF5B
S315080040D0BC08002078FEFFFFB008002070FEFFFF36
S315080040E068FEFFFF60FEFFFF4C8800088808002076
S315080040F0B4000020B80800200D000020CE000020E3
S3150800410010000020D4235B00FB181A68B74B1B6805
S315080041109A4202D0FDF736FD41E1DC235B00FB182D
S315080041201B685B7910221340DBB2002B0BD0B04B17
S315080041301B789AB2AF4B1A80AE4B1B881E2B02D047
S31508004140AD4B00221A70AD4B01221A7027E1D42319
S315080041505B00FB181A68A54B1B689A4202D0FDF74C
S3150800416011FD1CE1DC235B00FB181B685B79102240
S315080041701340DBB2002B0BD09D4B1B789AB2A04B99
S315080041801A809F4B1B880A2B02D09B4B00221A7061
S315080041909A4B01221A7002E1964B1B881A00994B1A
S315080041A0E42149008C46BC4463441A60954BE422DA
S315080041B052009446BC44634401221A71914BE4228E
S315080041C052009446BC44634400225A718D4BE42243
S315080041D052009446BC44634401229A71894BE422F6
S315080041E052009446BC44634418685968FDF7A0FA1F
S315080041F0D5E0854B1B78002B00D1CFE0824B1B788E
S315080042001A00824BE42149008C46BC4463441A6078
S315080042107E4BE42252009446BC44634401221A7140
S315080042207A4BE42252009446BC44634400225A71F5
S31508004230764BE42252009446BC44634401229A71A8
S31508004240724BE42252009446BC4463441868596889
S31508004250FDF76EFAA2E06E4B1B881A006D4BE4213F
S3150800426049008C46BC4463441A606A4BE4225200F7
S315080042709446BC44634401221A71664BE4225200F8
S315080042809446BC44634400225A71624BE4225200AD
S315080042909446BC44634401229A715E4BE422520060
S315080042A09446BC44634418685968FDF741FA76E0B9
S315080042B0594B1B881A00594BE42149008C46BC44CB
S315080042C063441A60554BE42252009446BC44634446
S315080042D001221A71514BE42252009446BC446344AD
S315080042E000225A714D4BE42252009446BC44634462
S315080042F001229A71494BE42252009446BC44634415
S3150800430018685968FDF714FA49E03D4B1B881A00EE
S31508004310434BE42149008C46BC4463441A60404B35
S31508004320E42252009446BC44634401221A713C4B71
S31508004330E42252009446BC44634400225A71384B26
S31508004340E42252009446BC44634401229A71344BD9
S31508004350E42252009446BC44634418685968FDF741
S31508004360E7F91CE0C0461AE0C04618E0C04616E069
S31508004370C04614E0C04612E0C04610E0C0460EE053
S31508004380C0460CE0C0460AE0C04608E0C04606E063
S31508004390C04604E0C04602E0C04600E0C046C82366
S315080043A0FF33FB181B78002B0BD11E4B00221A700B
S315080043B007E0DC235B00FB181B681B68DAB21A4BA4
S315080043C01A700E4B1B78002B04D1D4235B00FB1804
S315080043D01A6800E00022054B1A60084B00221A7082
S315080043E0C04600E0C046BD4672B0B0BD8808002091
S315080043F0B4000020960800200D000020CE00002002
S315080044000E00002058FEFFFFBE00002050FEFFFFF2
S31508004410B808002048FEFFFF1000002040FEFFFFFE
S3150800442038FEFFFFB8000020D300002080B588B012
S3150800443000AFBD4B1B88002B00D071E1BB4B1B782E
S31508004440002B00D06CE1BA4B1B889BB2002B00D026
S3150800445066E1B84B1B88012213409BB2002B00D1A2
S315080044605EE1B54B1B88012B00D059E1B34B1B7895
S31508004470002B00D054E1B24B1B88012B03D0B04B64
S315080044801B88022B03D1AF4B1B88FF2B0FD0AC4BDD
S315080044901B88032B03D1AC4B1B68002B07D0A84BFA
S315080044A01B88042B08D1A94B1B88FF2B04D1A44BCE
S315080044B000221A8000F01EFAA14B1B88042B00D993
S315080044C093E09A00A24BD3181B689F46A14B1B8802
S315080044D05A04F8239B0313409F4A1A439F4B1B8891
S315080044E09902F823DB010B401A439D4B1B889B0955
S315080044F09BB29B059B0D1343FB6176E0914B1B8892
S315080045005A04FC23DB031A40924B1B889902F823B2
S31508004510DB010B401A43924B1B889B099BB29B05F8
S315080045209B0D1343FB6160E0864B1B885A04FC23F2
S31508004530DB031340802212021A43884B1B88990218
S31508004540F823DB010B401A43854B1B889B099BB25A
S315080045509B059B0D1343FB6147E07B4B1B68BB61C7
S315080045601723FB1801221A7008E0BB695B08BB61B8
S3150800457017217B181A787B1801321A70BB69012239
S315080045801340F2D01723FB181B785A04F8239B0311
S315080045901340802212041A436E4B1B889902F82393
S315080045A0DB010B401A436E4B1B889B099BB29B058C
S315080045B09B0D1343FB6118E0644B1B885A04F823D0
S315080045C09B031340C02212041A43624B1B889902AC
S315080045D0F823DB010B401A43614B1B889B099BB2EE
S315080045E09B059B0D1343FB61C0465D4B1B881A0058
S315080045F05C4B1B689A4206D8594B1B881A005A4BC3
S315080046001B689A4263D20C217B18FA691A607B18D8
S3150800461000221A717B1800225A717B1804229A719B
S315080046207B1818685968FDF783F8504B1B881A00E1
S315080046304B4B1B88534364211800FBF7EFFD03001F
S3150800464019004B4B1B881A000B00934200DA130023
S315080046501A00484B1A60424B1B881A00414B1B68CC
S315080046609A4216D93E4B1B881A003E4B1A603C4BA1
S315080046701B881A003F4B1B689A4206D9384B1B8881
S315080046801A003C4B1B68D21A00E00022364B1A600F
S315080046900CE0334B1B881A00334B1A60304B1B88CF
S315080046A01A00344B1B68D2182E4B1A60324B1B88E3
S315080046B0FA22920053439AB2304B1A80304B1B8829
S315080046C0322253439AB21A4B1A80C04628E02B4B23
S315080046D01B889BB2002B23D1274B1B88002B1FD08E
S315080046E03B1DFA691A603B1D00221A713B1D002208
S315080046F05A713B1D04229A713B1D18685968FDF7CB
S3150800470017F81D4B1B88FA22920053439AB21B4B8B
S315080047101A801B4B1B88322253439AB2044B1A80C9
S31508004720C046BD4608B080BD9A080020B7000020E4
S3150800473078080020B00800209E080020BE0000204F
S31508004740B6080020980800207C080020B40800203D
S315080047508C8E00089C08002000808000A808002095
S31508004760A6080020C4000020C80000201000002071
S315080047700E000020C0000020B8080020860800208F
S315080047809608002080B500AF464B00221A60464BBB
S31508004790464A1A60464B454A1A60464B00221A702A
S315080047A0454B00221A70454B00221A70444B0122D1
S315080047B01A70444BFF221A80434BFF221A80434B40
S315080047C0FF221A80424B04221A80424B00221A808A
S315080047D0414B1B88002B04D0404B012252421A80C1
S315080047E05AE03E4B01221A803D4B1E221A803D4B51
S315080047F01E221A803C4B05221A803C4B1B88062B2E
S3150800480003D83B4B00221A8046E0384B1B88072BFF
S3150800481003D1374B01221A803EE0344B1B88082B04
S3150800482003D1334B02221A8036E0304B1B88092B02
S3150800483003D12F4B05221A802EE02C4B1B880A2BFE
S3150800484003D12B4B0A221A8026E0284B1B880B2BF8
S3150800485003D1274B14221A801EE0244B1B880C2BED
S3150800486003D1234B28221A8016E0204B1B880D2BD8
S3150800487003D11F4B51221A800EE01C4B1B880E2BAE
S3150800488003D11B4BA3221A8006E0184B1B880E2B5C
S3150800489002D9174BFF221A8000F02CF8C046BD46F5
S315080048A080BDC0467C08002008000020FFFFFF00EE
S315080048B0AC080020B7000020B80000200C0000203B
S315080048C00D000020B4080020A2080020800800205F
S315080048D0BC080020B60800209A080020B00800206E
S315080048E0B808002096080020100000208C08002038
S315080048F00E00002080B500AF2E4B180000F022FAFB
S3150800490000F058FA2C4A2D4B1B8813802C4B1A683A
S31508004910284B92B21A802A4B1B681A0C294B92B262
S315080049201A80294B1A68294B92B21A80264B1B68A3
S315080049301A0C274B92B21A80264A274B1B881380DB
S31508004940264A274B1B881380264A274B1B88138029
S31508004950264A274B1B881380264A274B1B88138019
S31508004960264A274B1B881380264A274B1B88138009
S31508004970264A274B1B881380264A274B1B881380F9
S31508004980264A274B1B881380264A274B1B881380E9
S31508004990264A274B1B881380264A274B1B881380D9
S315080049A0264A274B1B88138000F018FAC046BD46D6
S315080049B080BDC04600E8000808E8000898080020FE
S315080049C07C08002002E80008AC08002004E800087B
S315080049D006E800080AE80008A00800200CE8000815
S315080049E09A0800200EE80008BA08002010E8000817
S315080049F0BC08002012E80008B408002014E80008E3
S31508004A00A208002016E800088008002018E8000818
S31508004A109E0800201AE80008B00800201CE80008D4
S31508004A20B60800201EE80008B808002020E800089C
S31508004A309608002022E800080E00002024E8000856
S31508004A401000002080B582B000AF7860154B1B7847
S31508004A501A007B689A1A13005B019B1A9B009B1825
S31508004A60DB001800104B1B781B010E4A12789B1AA4
S31508004A701900FBF749FB03009AB20C4B1A800B4B43
S31508004A801B889B021AB2094B1B881BB29B059B0D00
S31508004A901BB213431BB29AB2054B1A80C046BD46D9
S31508004AA002B080BD06F4000805F40008D400002012
S31508004AB0A608002080B586B000AF284B7B61284B3E
S31508004AC01B68002B24D07B698022520113437B612B
S31508004AD0234B1B683B610F23FB1800221A7008E062
S31508004AE03B695B083B610F217B181A787B180132FA
S31508004AF01A703B6901221340F2D00F23FB181B786A
S31508004B00DB011A00F8231B0113407A6913437B6102
S31508004B10144B1B88FF2B0BD07B69402213437B6108
S31508004B20104B1B881A001F2313407A6913437B61B5
S31508004B303B1D7A691A603B1D00221A713B1D002233
S31508004B405A713B1D03229A713B1D18685968FCF778
S31508004B50EFFDC046BD4606B080BDC04600E0FE007B
S31508004B607C0800209808002080B500AF1D4B1B78F4
S31508004B70012B35D01C4B1B68002B30D11B4B1B68F7
S31508004B801B4A93422BD11B4B1B88FF2B27D11A4B51
S31508004B901B88FF2B23D1194B1B88FF2B1FD1184BC2
S31508004BA01B88012B1BD1174B1B88002B17D1164BC3
S31508004BB01B88042B13D1154B1B881E2B0FD1144BA6
S31508004BC01B881E2B0BD1134B1B880A2B07D1124BA4
S31508004BD01B88052B03D1034B01221A7000E0C0463F
S31508004BE0BD4680BD0D0000207C080020080000207E
S31508004BF0FFFFFF00B4080020A2080020800800205C
S31508004C00B0080020B6080020BC080020B80800201C
S31508004C10960800200E0000201000002080B500AF86
S31508004C20314B324A1A60304ABD239B003049D15075
S31508004C30304BBD22FF2199542C4B1B78FF2B50D1AA
S31508004C4000F0B8F8294BE62252421A802A4BBD22B8
S31508004C501A802A4B2A4A1A802A4B2B4A1A802B4B2F
S31508004C604A221A802A4B01221A802A4B00221A80CD
S31508004C70294B2A4A1A802A4B2A4A1A802A4B012289
S31508004C801A802A4B2A4A1A80194BEA2252421A805B
S31508004C90FF231B021AB2FF231BB213431AB2254B7A
S31508004CA092B21A80FF231B021AB200231BB21343C7
S31508004CB01AB2214B92B21A80FA239B001B021BB22E
S31508004CC0FF2213431AB21D4B92B21A80FA239B0095
S31508004CD01B0A9BB21A4A16490B439BB2138000F073
S31508004CE07DF8C046BD4680BDD800002000F000080B
S31508004CF000F40008C008002002F0000804F00008CC
S31508004D00C83C000006F000085886FFFF08F00008B7
S31508004D100AF0000812F0000814F000080109000063
S31508004D2016F00008FF09000018F000081AF000083D
S31508004D3000FFFFFF04F4000806F4000814F4000856
S31508004D4016F4000880B586B000AF786002F06AF8FD
S31508004D50031E01D000F0C1FD154B1A69144B012141
S31508004D608A431A610C217B1800221A607B187A681C
S31508004D705A607B1801229A600023BB6072B608232A
S31508004D80FA187B181100180002F00AF962B6084BE7
S31508004D901A69074B01210A431A6102F069F8031ED2
S31508004DA001D000F09AFDBB681800BD4606B080BD6C
S31508004DB00020024080B500AF02F034F8031E01D08F
S31508004DC000F08BFD044B1A69034B01210A431A6153
S31508004DD0C046BD4680BDC0460020024080B500AF33
S31508004DE0074B1A69064B01218A431A6102F040F8FB
S31508004DF0031E01D000F071FDC046BD4680BDC04609
S31508004E000020024080B586B000AF0200FB1D1A7074
S31508004E10BB1D0A1C1A70FB1D1A782F4B9200D3581B
S31508004E207B61BB1D1B787A69D3183B617B69002BB4
S31508004E3004D10823FB1800221A7034E07B691B781A
S31508004E40BA1D12789A4203D8BB1D1B78012B04D1D0
S31508004E500823FB1800221A7025E0FB1D1B78002B7F
S31508004E600BD0BB1D1B78022B07D1FB1D1B781B4AD9
S31508004E70D25C0823FB185A7011E0FB1D1B78BD2B6A
S31508004E8008D1BB1D1B78042B04D10823FB18FF226D
S31508004E905A7004E03B691A780823FB185A700823ED
S31508004EA0FB1801221A700C217B180822BA181288DE
S31508004EB01A807A1800231178FF200140FF208343C7
S31508004EC00B435278FF210A40120205490B4013434F
S31508004ED0181CBD4606B080BDD8000020C0080020BA
S31508004EE0FF00FFFF90B585B000AF04000800110071
S31508004EF0FB1D221C1A70BB1D021C1A707B1D0A1C86
S31508004F001A70FB1D1A78314B9200D358FB60BB1DF3
S31508004F101B78FA68D318BB60FB1D1B78002B0BD0D7
S31508004F20BB1D1B78022B07D1FB1D1B78284A791D50
S31508004F300978D154002344E0FB1D1B78BD2B1DD1F5
S31508004F40BB1D1B78042B07D17B1D1B78002B01D0BA
S31508004F50002336E0022334E0BB1D1B780A2B04D15C
S31508004F601C4B01221A7000232BE0BB1D1B780B2B50
S31508004F7027D1194B01221A70002322E0FB1D1A784B
S31508004F80124B9200D358002B17D0FB1D1B78104AE2
S31508004F90D35C552B11D1FB681B78BA1D12789A423F
S31508004FA00BD8FB1D1B78BD2B09D1BB1D1B78032B0A
S31508004FB005D00A4B1B78002B01D0012301E0022300
S31508004FC0FFE71800BD4605B090BDC046D8000020D2
S31508004FD0C0080020D8040020D904002003F40008E3
S31508004FE0F0B5CBB000AF060008001100B54B94220F
S31508004FF052009446BC446344321C1A70B24B942245
S3150800500052009446BC446344021C1A70AF4B942267
S3150800501052009446BC4463440A1C1A70A94B942255
S3150800502052009446BC4463441A78A94B9200D3585C
S315080050308C225200B9180B60A34B942149008C4668
S31508005040BC4463441B78BA181268D3188A225200E3
S31508005050BA1813609B4B942252009446BC4463448E
S315080050601B78BD2B15D1984B942252009446BC440C
S3150800507063441B78042B0CD1944B9422520094461B
S31508005080BC4463441B78002B03D1BD2000F024F9EF
S3150800509014E18C235B00FB181B689B0A9B02882281
S315080050A05200BA181360FFF785FE2823FF33FB1852
S315080050B000221A701CE02821FF317B181B789B0000
S315080050C01A0088235B00FB181B68D31808007A1897
S315080050D0127819687F4B94267600B446BC4463441C
S315080050E09200D15001007B181A787B1801321A7089
S315080050F088235B00FB181B681B789B08DBB22822F9
S31508005100FF32BA1812789A42D5D388235B00FB1867
S315080051101B681800FFF716FE030086225200B9180E
S315080051200B60BB181B68013300D0C6E08A21490012
S315080051307B181A6888235B00FB181B68D31A9A0821
S31508005140644B942040008446BC4463449200D35880
S3150800515090225200BA1813607B181B68032213406A
S31508005160012B17D004D3022B2DD0032B42D054E0A9
S31508005170902149007B181B68FF2293431A00534B62
S31508005180942040008446BC4463441B7813437A1831
S31508005190136042E0902149007B181B681B0C1B0416
S315080051A04A4A942040008446BC446244127812025B
S315080051B01A4308007B181B68FF210B4013430100A4
S315080051C07A18136029E0902149007B181B681B0E8A
S315080051D01B063E4A942040008446BC44624412782A
S315080051E012041A437B181B681B041B0C13437A18FA
S315080051F0136012E0354B942252009446BC44634433
S315080052001B781B061A00902149007B181B681B0295
S315080052101B0A13437A181360C0468A235B00FB18DF
S315080052201A6888235B00FB181B68D31A9A08294B4F
S31508005230942149008C46BC4463449200902149005D
S3150800524079180968D1502023FF33FB1800221A70F9
S3150800525023E072B62026FF36BB191B789B001A007E
S3150800526088235B00FB181B68D118BB191A78194BE1
S31508005270942040008446BC4463449200D3581C00E2
S3150800528000231D0022002B00022001F035FD62B626
S31508005290BB191A78BB1901321A7088235B00FB18F0
S315080052A01B681B789B08DBB22022FF32BA181278DB
S315080052B09A42CED3FFF792FD00E0C046BD464BB0FA
S315080052C0F0BDC046DFFEFFFFDEFEFFFFDDFEFFFF8F
S315080052D0D8000020E4FEFFFFB0B588B000AF02009A
S315080052E017217B181A707B181B78002B04D01723FC
S315080052F0FB181B78BD2B53D12B4BBD229B5C552B22
S315080053004DD1FFF757FD294B1800FFF71BFD03008A
S31508005310FB61FF231A06FF231B041A43FF231B0204
S31508005320134316221343BB6172B6BB69BB600023E5
S31508005330FB601E49BA68FB68022001F0DDFCFF230A
S315080053401A0600231B041A43FF231B021343FF22DA
S315080053501343BB61BB693B6000237B6014493A6811
S315080053607B68022001F0C8FCFA239B001A04FF237D
S315080053701B021343FF221343BB61BB691C000023B6
S315080053801D000C4922002B00022001F0B5FC62B674
S31508005390FFF724FD044BBD220021995400E0C046C6
S315080053A0BD4608B0B0BDC046C008002000F40008DD
S315080053B004F4000808F4000890B589B000AF0C247E
S315080053C03B19180014231A00002103F021F9694B30
S315080053D05A69684B8021C9030A435A61654B5A6961
S315080053E08023DB031340BB60BB68624B5A69614B81
S315080053F0802189020A435A615E4B5A6980239B02BF
S3150800540013407B607B685B4B5A695A4B8021C90203
S315080054100A435A61574B5A698023DB0213403B60A3
S315080054203B68822319029023DB050022180001F04D
S31508005430F0FF514B00220121180001F0EAFF3B1949
S3150800544003221A603B1903225A603B1900229A600C
S315080054503B194A4A1900100001F04EFE3B19484A0A
S315080054601A603B1903225A603B1900229A603A19BE
S315080054709023DB051100180001F03EFE3B191022AF
S315080054801A603B1900225A603B1901229A603A19A0
S315080054909023DB051100180001F02EFE3B19FD22B2
S315080054A01A603B1903225A603B1900229A603B197D
S315080054B0314A1900100001F01FFE21007B188022D6
S315080054C092001A600C003B1901225A603B1900220F
S315080054D09A603B190122DA603A199023DB0511001C
S315080054E0180001F009FE3B198022D2001A603B1908
S315080054F0244A5A603B1901229A603A199023DB051F
